:100000000C9492010C94BA010C94BA010C94BA01AC
:100010000C94BA010C94BA010C94BA010C94BA0174
:100020000C94BA010C94BA010C94BA010C94BA0164
:100030000C94BA010C94BA010C94BA010C94BA0154
:100040000C94C0110C94BA010C9431130C946D13E0
:100050000C94BA010C94BA010C94BA010C94BA0134
:100060000C94BA010C94BA014E46432054616720A7
:100070002D200055494420000A4E6F204E4445462D
:10008000204D657373616765004469646E27742051
:1000900066696E6420504E35337820626F617264F9
:1000A00000466F756E64206368697020504E35009D
:1000B0004669726D77617265207665722E20004EFA
:1000C0006F2064726976657220666F722063617258
:1000D00064207479706520005741524E494E473A6A
:1000E00020546167206973206E6F7420666F726D93
:1000F00061747465642E0052656164206661696C88
:10010000656420004572726F722E204661696C65CD
:1001100064207265616420706167652000457272B9
:100120006F722E204661696C65642072656164207F
:10013000626C6F636B2000546167206973206E6F7F
:1001400074204E44454620666F726D617474656418
:100150002E004572726F722E20426C6F636B2041CD
:10016000757468656E7469636174696F6E20666129
:10017000696C656420666F72200052656164206658
:1001800061696C656420004572726F722E20436154
:100190006E2774206465636F6465206D6573736199
:1001A0006765206C656E6774682E005741524E4932
:1001B0004E473A20546F6F206D616E7920726563EF
:1001C0006F7264732E20496E637265617365204D92
:1001D00041585F4E4445465F5245434F5244532E6B
:1001E000000A4E444546204D6573736167652000E3
:1001F000207265636F7264002062797465730020F9
:10020000204E444546205265636F726400202020D2
:1002100020544E4620307800456D70747900576543
:100220006C6C204B6E6F776E004D696D65204D656F
:10023000646961004162736F6C7574652055524941
:100240000045787465726E616C00556E6B6E6F77E9
:100250006E00556E6368616E676564005265736514
:1002600072766564002020202054797065204C65EA
:100270006E67746820307800202020205061796CEF
:100280006F6164204C656E677468203078002020B0
:1002900020204964204C656E677468203078002007
:1002A0002020205479706520002020202050617982
:1002B0006C6F6164200020202020496420002020F1
:1002C00020205265636F7264206973200000000073
:1002D0000700020100000304060000000000000007
:1002E00000010204081020408001020408102001CF
:1002F000020408102004040404040404040202029A
:100300000202020303030303030000000025002888
:10031000002B0000000000240027002A0000050236
:100320002814120211241FBECFEFD8E0DEBFCDBFCC
:1003300011E0A0E0B1E0E2E7F5E302C005900D9224
:10034000A83CB107D9F712E0A8ECB1E001C01D92BA
:10035000AE38B107E1F713E0C2E2D3E004C0229760
:10036000FE010E941318CE31D107C9F70E94E2178F
:100370000C94AC1A0C94000040E052EC61E070E088
:1003800083EE91E00E94A81368E371E083EE91E0B0
:100390000E944E1561E088EC91E00C948705CF93A4
:1003A000DF93CDB7DEB72D970FB6F894DEBF0FBE43
:1003B000CDBF64E471E083EE91E00E944E1540E011
:1003C00050E0BA0188EC91E00E94E205882371F0C8
:1003D00068EC71E0CE0101960E940306CE01019601
:1003E0000E941805CE0101960E94A00464EF71E0FE
:1003F00080E090E00E9434122D960FB6F894DEBF94
:100400000FBECDBFDF91CF9108954AE069ED71E055
:1004100083ED91E00E94420263ED71E088EC91E08F
:100420000C94610588EC91E00C948205CF93DF93E6
:10043000EC0160E08C810E94891162E070E080E054
:1004400090E00E94341261E08C81DF91CF910C9496
:10045000891161E0FC0184810E9451110E94870E84
:1004600080E00E94AF0E80E00E94A60E85E00C9412
:10047000B40E8EBD0DB407FEFDCF8EB5089580E09D
:100480000C943902FC018AE591E091838083158206
:1004900073836283448308951F93CF93DF93EC01AA
:1004A00060E08C810E94891182E00E9439020E94E2
:1004B0003F02182F61E08C810E948911812F817089
:1004C000DF91CF911F910895BF92CF92DF92EF926B
:1004D000FF920F931F93CF93DF938C01D62EB72EED
:1004E000C42E7901C0E0D0E00EC061E070E080E091
:1004F00090E00E9434122196E114F10421F0EC16F0
:10050000FD0608F453C0C8010E944C02882369F319
:1005100060E0F80184810E94891161E070E080E070
:1005200090E00E94341283E00E9439020E943F0250
:10053000811134C00E943F02811130C00E943F02ED
:100540008F3F61F536C0F801C5810E943F02853DAD
:1005500029F50E943F029C2F9F5F98131FC031C056
:100560000E943F020E943F02CCEFDFEF19C086EDF0
:10057000E82EEC0ECD2DDB2D04C00E943F028993A6
:10058000E80E8C2F8D198F15C0F30E943F028E0D3F
:1005900029F40E943F02CF2DD0E002C0CDEFDFEF63
:1005A00061E0F80184810E94891110C0CEEFDFEF75
:1005B0000DC00E943F02F82E0E943F028F0D71F77E
:1005C000C2CFFA94FA94CF1490F6CACFCE01DF913D
:1005D000CF911F910F91FF90EF90DF90CF90BF9040
:1005E00008958F929F92AF92BF92CF92DF92EF9237
:1005F000FF920F931F93CF93DF937C01962E172FBB
:10060000A42EB22E832E60E0FC0184810E94891109
:1006100062E070E080E090E00E94341281E00E948D
:10062000390280E00E94390280E00E9439028FEF97
:100630000E943902CA2DCF5FC00F8C2F0E94390251
:100640008C2F81950E94390284ED0E943902C92DB8
:10065000D12F14ED07C06E0189910E943902F60175
:100660008081180F8C2F89198A15A8F3CB2DD82DCE
:1006700007C06E0189910E943902F6018081180F2E
:100680008C2F8B198017A8F3812F81950E94390236
:1006900080E00E94390261E0F7018481DF91CF910F
:1006A0001F910F91FF90EF90DF90CF90BF90AF9090
:1006B0009F908F900C948911CF92DF92EF92FF92CE
:1006C0000F931F93CF93DF93CDB7DEB72C970FB661
:1006D000F894DEBF0FBECDBF7C0186E0E6E0F1E01E
:1006E000DE01179601900D928A95E1F760E0F7011F
:1006F00084810E94891161E070E080E090E00E94B6
:10070000341283E00E9439028E010F5F1F4F6E0189
:10071000F7E0CF0ED11C0E943F02F80181938F01B8
:10072000EC15FD05C1F761E0F70184810E94891194
:1007300046E050E0BE01695F7F4FCE0101960E9406
:100740001E1A2C960FB6F894DEBF0FBECDBFDF91F8
:10075000CF911F910F91FF90EF90DF90CF90089570
:100760000F931F93CF93DF93EC01FB0180818D8367
:10077000CE010E94F1021AE008C061E070E080E062
:1007800090E00E943412115071F0CE010E944C0290
:10079000882399F3CE010E945C03882311F08FEF28
:1007A00003C080E001C08EEFDF91CF911F910F91C8
:1007B0000895CF92DF92EF92FF920F931F93CF9302
:1007C000DF93EC017B016A018C010C5F1F4F65E533
:1007D00071E0C8010E94FF16F982E882DB82CA82BA
:1007E00062E671E0C8010E9433171C861B86DF9108
:1007F000CF911F910F91FF90EF90DF90CF900895D0
:10080000AF92BF92CF92DF92EF92FF920F931F931E
:10081000CF93DF93EC017B015A0169018C010C5FDE
:100820001F4F65E571E0C8010E94FF16F982E8825A
:10083000BB82AA82B601C8010E941C171C861B86B7
:10084000DF91CF911F910F91FF90EF90DF90CF90AC
:10085000BF90AF9008958F929F92AF92BF92CF9228
:10086000DF92EF92FF920F931F93CF93DF93EC01F0
:100870006B015A0149017C0184E0E80EF11C65E539
:1008800071E0C7010E94FF16D982C882BB82AA828A
:10089000B401C7010E941C1786E390E00E948A16EB
:1008A0007C01B8010E94F409FC86EB86DF91CF91B0
:1008B0001F910F91FF90EF90DF90CF90BF90AF907E
:1008C0009F908F9008956F927F928F929F92AF9298
:1008D000BF92CF92DF92EF92FF920F931F93CF932D
:1008E000DF93EC016B015A0149013C0184E0680E81
:1008F000711C65E571E0C3010E94FF16D982C882B0
:10090000BB82AA82B401C3010E941C1786E390E057
:100910000E948A166C01A701B8010E94950ADC8624
:10092000CB86DF91CF911F910F91FF90EF90DF90D9
:10093000CF90BF90AF909F908F907F906F900895D1
:100940000F931F93CF93DF938C01FC01C385D48554
:10095000209731F0CE010E94310ACE010E948C1600
:10096000C8010496DF91CF911F910F910C948E16C0
:10097000CF92DF92EF92FF920F931F93CF93DF936B
:10098000CDB7DEB727970FB6F894DEBF0FBECDBF49
:100990008C016B0165E571E00E94FF16E12CF12CE2
:1009A0002EC0E114F10429F063EB71E0C8010E944C
:1009B000AD17D601ED91FC91EE0DFF1D80818F30BA
:1009C00028F46AE671E0C8010E94AD17D601ED91E6
:1009D000FC91EE0DFF1D608140E170E0CE010196BB
:1009E0000E944D17BE016F5F7F4FC8010E94A6177E
:1009F000CE0101960E948E16BFEFEB1AFB0AF6019C
:100A000082819381E816F90660F2C8010E94CE1730
:100A1000C80127960FB6F894DEBF0FBECDBFDF9199
:100A2000CF911F910F91FF90EF90DF90CF9008959D
:100A30000F931F93CF93DF93CDB7DEB727970FB6F2
:100A4000F894DEBF0FBECDBF8C0168E670E083EE88
:100A500091E00E94B014B8016C5F7F4F83EE91E08B
:100A60000E943A1563E770E083EE91E00E94B014B3
:100A7000B801CE0101960E94B804BE016F5F7F4F9E
:100A800083EE91E00E943A15CE0101960E948E16E7
:100A9000F80183859485009739F468E770E083EE68
:100AA00091E00E94261502C00E94800B27960FB687
:100AB000F894DEBF0FBECDBFDF91CF911F910F9194
:100AC0000895EF92FF920F931F93CF93DF9300D07F
:100AD000CDB7DEB78C0181E590E069837A830E940F
:100AE0008A167C0169817A810E94C20EF801F18226
:100AF000E0820F900F90DF91CF911F910F91FF90A7
:100B0000EF900895FC01808191810C948C16CF9216
:100B1000DF92EF92FF921F93CF93DF93EC01162F9A
:100B2000888199810E94C80E888199810E94E10E76
:100B30006B017C01611571058105910539F469E846
:100B400070E083EE91E00E94B014FFCF112379F1A1
:100B500061EA70E083EE91E00E94B0144F2D5527BA
:100B60006627772720E130E083EE91E00E94CB15E5
:100B700060EB70E083EE91E00E94B0144E2D50E0E7
:100B800060E070E02AE030E083EE91E00E94BE1564
:100B90006EE283EE91E00E9409154D2D50E060E079
:100BA00070E02AE030E083EE91E00E94CB1588816E
:100BB0009981DF91CF911F91FF90EF90DF90CF90BF
:100BC0000C943A0FEF920F931F93DC011A961C922C
:100BD0001E9219979C01275F3F4FFC0132968D9121
:100BE0009C91E12C411551056105710519F408EE40
:100BF00013E001C08A01AF0160E00E94770F1F91EE
:100C00000F91EF900895EF92FF920F931F93CF9360
:100C1000DF93CDB7DEB72C970FB6F894DEBF0FBECB
:100C2000CDBF7C018B01FB0181859285049719F46E
:100C300080E090E002C082E090E0811118C0F801ED
:100C400060817181CE010B960E940908F80121850F
:100C50003285A8014E5F5F4FBE01655F7F4FC701C0
:100C60000E947E08CE010B960E940D0830C0823093
:100C7000C1F4F80160817181CE0101960E94750670
:100C8000F80121853285A8014E5F5F4FBE016F5F7D
:100C90007F4FC7010E943207CE0101960E947D0658
:100CA00016C06FEB70E083EE91E00E94B0144AE052
:100CB00050E061E083EE91E00E940416F801418566
:100CC0005285B8016E5F7F4FC7010E94D903C701EB
:100CD0002C960FB6F894DEBF0FBECDBFDF91CF913B
:100CE0001F910F91FF90EF900895FC017183608335
:100CF000118610861582148208950895CF93DF938C
:100D000000D000D0CDB7DEB7AE014F5F5F4F64E0DB
:100D1000FC01808191810E94D310882371F0898128
:100D20008F3FC1F48A818F3FA9F48B818F3F91F46B
:100D300081E09C819F3F79F00DC064E071E083EE1B
:100D400091E00E94B0144AE050E064E083EE91E04C
:100D50000E94041680E00F900F900F900F90DF918B
:100D6000CF9108950F931F93CF93DF9300D000D0BE
:100D7000CDB7DEB78C01AE014F5F5F4F63E0FC0182
:100D8000808191810E94D310882341F08B81F8E00B
:100D90008F9FC0011124F801938382830F900F90DD
:100DA0000F900F90DF91CF911F910F9108950F93A6
:100DB0001F93CF93DF93CDB7DEB72C970FB6F89480
:100DC000DEBF0FBECDBF8C01AE014F5F5F4F64E051
:100DD000FC01808191810E94D310811114C022C036
:100DE0008A81F8018483158282E090E009C08E81B7
:100DF0008330C1F48F81F8018483158287E090E00D
:100E0000918780870FC0AE014B5F5F4F65E0F801AF
:100E1000808191810E94D310882321F089818330C1
:100E200031F7DECF2C960FB6F894DEBF0FBECDBFE4
:100E3000DF91CF911F910F910895FC01248135819D
:100E400080859185280F391F2F5F3F4FC90183701F
:100E50009927892B09F403C02C7F2C5F3F4F3783E0
:100E6000268308953F924F925F926F927F928F9266
:100E70009F92AF92BF92CF92DF92EF92FF920F9329
:100E80001F93CF93DF93CDB7DEB7ED970FB6F894EE
:100E9000DEBF0FBECDBF7C018B016A0159014DB68B
:100EA0005EB6CB010E947E068823C9F068ED70E033
:100EB00083EE91E00E9426156CE671E0CE01C796A4
:100EC0000E94FF169E01295C3F4FA501B601C70194
:100ED0000E940004CE01C7960E948E167CC0C801F5
:100EE0000E94B206C8010E94D706C8010E941D07D1
:100EF000F80184819581892B49F4CE0101960E94E5
:100F0000D709CE0101960E945B0B4DC0F801868186
:100F100097812DB73EB7281B390B0FB6F8943EBF0B
:100F20000FBE2DBF8DB69EB68FEF881A980A612C22
:100F3000712C84E0382EA401460D571D632DF80155
:100F4000808191810E94D310811111C067EF70E000
:100F500083EE91E00E94B0144AE050E0632D83EEEE
:100F600091E00E940416F8011582148211C0F80164
:100F70008085918524813581820F931F68167906BB
:100F800038F43394F4E06F0E711C2FE33212D3CF98
:100F9000F8014481558160857185680D791DCE0108
:100FA00001960E94950A6CE671E0CE01C7960E94F8
:100FB000FF168E010F5F1F4F9E01295C3F4FA50159
:100FC000B601C7010E942B04CE01C7960E948E165F
:100FD000C8010E94310AC7010FB6F8945EBE0FBE69
:100FE0004DBEED960FB6F894DEBF0FBECDBFDF91BC
:100FF000CF911F910F91FF90EF90DF90CF90BF9016
:10100000AF909F908F907F906F905F904F903F90A8
:101010000895FC0171836083089508956F3F710501
:101020001CF46D5F7F4F02C06B5F7F4FCB018F70F1
:101030009927892B39F077FF02C0615F7F4F607F6E
:10104000605F7F4FCB010895CF93DF93FB0120E0DA
:1010500030E0EF018191882391F08330B9F06DE7A2
:1010600071E083EE91E00E94071540E150E0688155
:1010700083EE91E00E9404162EEF3FEF07C02F5F32
:101080003F4F2031310529F72FEF3FEFC901DF91A5
:10109000CF910895EF92FF920F931F93CF93DF9319
:1010A0008B01EA0179010E94240897FD06C0F8012E
:1010B000E80FF91F2081233041F067E871E083EEEB
:1010C00091E00E94261580E012C021812F3F41F45B
:1010D000528140E02381422B59834883049603C008
:1010E000288319820296F7019183808381E0DF9142
:1010F000CF911F910F91FF90EF9008952F923F9203
:101100004F925F926F927F928F929F92AF92BF9217
:10111000CF92DF92EF92FF920F931F93CF93DF93C3
:10112000CDB7DEB7E0970FB6F894DEBF0FBECDBFE8
:101130003C015B014A01322E232E2DB73EB73FA75B
:101140002EA786E0ECE0F1E0DE01589601900D92CA
:101150008A95E1F719A218A21F8E1E8ECE0148961D
:101160009BA38AA36C01E12C04E010E020E030E0B6
:10117000432DB401D5018D919C910E9414108823B8
:10118000D1F1AE014F5F5F4F64E0F5018081918145
:101190000E948210882389F09E01205E3F4FAE019D
:1011A000425E5F4FBE016F5F7F4FC5010E944A08DC
:1011B000811139C06AE871E010C06DE171E083EE21
:1011C00091E00E94B0144AE050E064E070E083EEE9
:1011D00091E00E94701660E971E0CE0141960E9494
:1011E000FF169E012F5E3F4F432D522DB401C301C8
:1011F0000E940004B7C067E371E083EE91E00E94B3
:10120000261560E971E0CE0101960E94FF169E014D
:101210002F5F3F4F432D522DB401C3010E940004A4
:10122000CE010196A1C06E8D7F8DC5010E940E0872
:101230009FA38EA32DB73EB7281B390B0FB6F8948A
:101240003EBF0FBE2DBF8DB79EB701969DA78CA741
:101250001DA21CA284E0482E512CFAA09BA198ABA1
:1012600062C0C201AA2797FDA095BA2F88A799A7A7
:10127000AAA7BBA7AC01BD01D5018D919C910E948D
:10128000E40F8823E9F0CF2CD8A8E12C08A519A5F4
:101290002AA53BA5432DB401F501808191810E94CF
:1012A000141081110DC062E571E083EE91E00E949F
:1012B000B0144AE050E0B20183EE91E00E94701653
:1012C0004CA55DA52CA13DA1420F531F642DD50156
:1012D0008D919C910E94821081110DC06AE771E08E
:1012E00083EE91E00E94B0144AE050E0B20183EE38
:1012F00091E00E947016ECA1FDA17096FDA3ECA3F5
:1013000082010F5F1F4FA801662757FD6095762F5A
:10131000D5018D919C910E94F90F882319F08201CB
:101320000E5F1F4F2801ECA1FDA12EA13FA1E217E6
:10133000F3070CF496CFEE8CFF8C08A119A18CA5B5
:101340009DA5080F191F60E971E0CE0141960E942A
:10135000FF169E012F5E3F4F432D522DB401C30156
:101360000E946304CE0141960E948E16C301AEA571
:10137000BFA50FB6F894BEBF0FBEADBFE0960FB6C7
:10138000F894DEBF0FBECDBFDF91CF911F910F91BB
:10139000FF90EF90DF90CF90BF90AF909F908F9095
:1013A0007F906F905F904F903F902F900895EF92B5
:1013B000FF920F931F93CF93DF938C01EC017C017D
:1013C00084E3E80EF11CCE010E94D20B2D96CE15BF
:1013D000DF05C9F7F80115AA14AADF91CF911F9173
:1013E0000F91FF90EF900895CF92DF92EF92FF92CE
:1013F0000F931F93CF93DF93EC017B018C016C0162
:1014000084E3C80ED11CC8010E94D20B035F1F4F9A
:101410000C151D05C1F7F70184A995A99DAB8CABEF
:1014200000E010E08DE0D82E0EC0D09EC001D19E0D
:10143000900D1124B701680F791F8C0F9D1F0E941A
:10144000010C0F5F1F4F8CA99DA90817190768F39E
:10145000DF91CF911F910F91FF90EF90DF90CF9090
:1014600008950F931F93CF93DF938C01009751F052
:10147000EC01E496C017D10729F02D97CE010E9408
:10148000E10BF8CFDF91CF911F910F910895DF927B
:10149000EF92FF920F931F93CF93DF937C0100E0B5
:1014A00010E0C0E0D0E03DE0D32E0DC0D09EC001E2
:1014B000D19E900D11248E0D9F1D0E946A0CC80FA5
:1014C000D91F0F5F1F4FF70184A995A908171907A6
:1014D00068F3CE01DF91CF911F910F91FF90EF90B4
:1014E000DF900895CF93DF93EC012CA93DA9243020
:1014F000310588F44DE0429FC001439F900D1124B7
:101500008C0F9D1F0E94010C8CA99DA901969DAB7B
:101510008CAB81E007C06BEA71E083EE91E00E9442
:10152000261580E0DF91CF9108952F923F924F9240
:101530005F926F927F928F929F92AF92BF92CF9263
:10154000DF92EF92FF920F931F93CF93DF93CDB76C
:10155000DEB72F970FB6F894DEBF0FBECDBF7C016C
:101560008B014A016C015C0184E3A80EB11CC60129
:101570000E94D20BEDE0CE0ED11CCA14DB04B9F7E9
:10158000F70115AA14AAC12CD12C78C05801AC0CB3
:10159000BD1CF5017080F72DF074FF8773FA882762
:1015A00080F98E87CE0101960E94D20B672D67705D
:1015B000CE0101960E94870CF5014181442E512CE9
:1015C00074FE0AC03601F2E06F0E711CF801E60DE0
:1015D000F71DC080D12C0DC0360185E0680E711C4E
:1015E000F5013480212CF801E60DF71D80816101A1
:1015F000C82AFE85FF2349F08FEF681A780AF801A0
:10160000E60DF71DA080B12C02C0A12CB12CEFEF8C
:101610006E1A7E0AB801660D771D50E0CE01019664
:101620000E948A0C640C751CFE85FF2351F0B801E2
:10163000660D771DA501CE0101960E94EC0C6A0C87
:101640007B1CB801660D771DA601CE0101960E9494
:10165000BB0CC60CD71CBE016F5F7F4FC7010E9439
:10166000720A8F85811105C0CE0101960E94E10B9F
:1016700005C0CE0101960E94E10B04C08C149D04AC
:101680000CF084CF2F960FB6F894DEBF0FBECDBFFF
:10169000DF91CF911F910F91FF90EF90DF90CF904E
:1016A000BF90AF909F908F907F906F905F904F9082
:1016B0003F902F9008950F931F93CF93DF938C014A
:1016C0008DE090E00E948A16EC010E94D20B60E04F
:1016D000CE010E94870CBE01C8010E94720A2097A9
:1016E00051F0CE010E94E10BCE01DF91CF911F910D
:1016F0000F910C948C16DF91CF911F910F9108954B
:10170000FF920F931F93CF93DF93EC0161EE71E093
:1017100083EE91E00E94B0146CA97DA94AE050E0EC
:1017200083EE91E00E94DF1560EF71E083EE91E0BF
:101730000E94B0148CA99DA9019719F465EA71E083
:1017400002C064EA71E083EE91E00E940715CE01C9
:101750000E94470A4AE050E0BC0183EE91E00E94FB
:10176000681668EF71E083EE91E00E94261500E0B4
:1017700010E05DE0F52E0BC0F09EC001F19E900DD3
:1017800011248C0F9D1F0E941D0D0F5F1F4F8CA9F0
:101790009DA90817190780F3DF91CF911F910F9131
:1017A000FF900895FC01108212821182148213822C
:1017B0001682158210861782128611861486138669
:1017C0000895CF93DF93EC0189819A81892B21F0D1
:1017D0008F8198850E94B2188B819C81892B21F082
:1017E00089859A850E94B2188D819E81892B31F05E
:1017F0008B859C85DF91CF910C94B218DF91CF91AE
:101800000895EF92FF920F931F93CF93DF93EC0114
:101810008B018617970709F455C089819A81892B16
:1018200021F08F8198850E94B2188B819C81892B31
:1018300021F089859A850E94B2188D819E81892B1D
:1018400021F08B859C850E94B218F80180818883E5
:10185000E180F280FA82E982838194819C838B8388
:10186000858196819E838D83E114F10459F0C7012F
:101870000E9417188F839887F80167817085A701E8
:101880000E942B1AEB80FC80E114F10459F0C7018F
:101890000E94171889879A87F80161857285A701C8
:1018A0000E942B1AED80FE80E114F10459F0C7016B
:1018B0000E9417188B879C87F80163857485A701A0
:1018C0000E942B1ACE01DF91CF911F910F91FF90B3
:1018D000EF900895FC01838194818F3F910521F061
:1018E0001CF046E050E002C043E050E065817681A4
:1018F0006115710511F04F5F5F4F21813281260F15
:10190000371F280F391F240F351FC9010895FC0107
:1019100060830895EF92FF920F931F93CF93DF930D
:1019200000D0CDB7DEB77C018A01FC012181328174
:10193000232B41F08781908569837A830E94B218B6
:101940007A816981C80169837A830E941718F70137
:1019500087839087A80169817A810E942B1AF701F9
:10196000018312830F900F90DF91CF911F910F9100
:10197000FF90EF900895EF92FF920F931F93CF93F4
:10198000DF9300D0CDB7DEB77C018A01FC01238153
:101990003481232B41F08185928569837A830E946B
:1019A000B2187A816981C80169837A830E94171805
:1019B000F70181879287A80169817A810E942B1A99
:1019C000F701038314830F900F90DF91CF911F9144
:1019D0000F91FF90EF900895EF92FF920F931F9356
:1019E000CF93DF9300D0CDB7DEB77C018A01FC0135
:1019F00025813681232B41F08385948569837A8301
:101A00000E94B2187A816981C80169837A830E9431
:101A10001718F70183879487A80169817A810E944A
:101A20002B1AF701058316830F900F90DF91CF914A
:101A30001F910F91FF90EF900895CF93DF93EC01EA
:101A40006FEF71E083EE91E00E9426156DE072E089
:101A500083EE91E00E94B01440E150E0688183EE93
:101A600091E00E94FD1563EB71E083EE91E00E942E
:101A7000071588818330D1F020F4813069F098F423
:101A800008C08530C9F0A8F08630C9F08730E9F485
:101A900019C068E172E002C06EE172E083EE91E08D
:101AA0000E94261516C069E272E0F8CF64E372E086
:101AB000F5CF61E472E0F2CF6AE472E0EFCF62E565
:101AC00072E0ECCF6CE572E0E9CF83EE91E00E942A
:101AD000101565E672E083EE91E00E94B014698112
:101AE0007A8140E150E083EE91E00E94DF1563EBE4
:101AF00071E083EE91E00E94071569817A814AE0E6
:101B000050E083EE91E00E94E51568E772E083EE15
:101B100091E00E94B0146B817C8140E150E083EE43
:101B200091E00E94681663EB71E083EE91E00E9401
:101B300007156B817C814AE050E083EE91E00E94C2
:101B400070168D819E81892B71F06EE872E083EEB4
:101B500091E00E94B0146D817E8140E150E083EEFF
:101B600091E00E94E5156FE972E083EE91E00E943A
:101B7000B01449815A8160E070E08F8198850E949D
:101B8000FB0D69EA72E083EE91E00E94B0144B8194
:101B90005C81662757FD6095762F89859A850E941E
:101BA000FB0D8D819E81892B71F066EB72E083EED7
:101BB00091E00E94B0144D815E8160E070E08B8501
:101BC0009C850E94FB0D6EEB72E083EE91E00E941B
:101BD000B014CE010E946A0C4AE050E0BC0183EED2
:101BE00091E00E94681668EA71E083EE91E0DF916F
:101BF000CF910C944E152F923F924F925F926F921D
:101C00007F928F929F92AF92BF92CF92DF92EF928C
:101C1000FF920F931F93CF93DF936A017B011C0107
:101C2000EC01812C912C540144244A94542C32010F
:101C3000440E551E661E771E29C08E018881803194
:101C400030F46AE671E083EE91E00E940715219678
:101C500040E150E0F801608183EE91E00E94FD15C3
:101C6000F2E0CF16D104E104F1045CF08414950491
:101C7000A604B70431F063EB71E083EE91E00E94BB
:101C800007158FEF881A980AA80AB80A8C149D04C1
:101C9000AE04BF0490F262EB71E083EE91E00E942B
:101CA0000715812C912C540115C0F10161911F0180
:101CB000603238F465EB71E083EE91E00E94071525
:101CC00004C083EE91E00E940915FFEF8F1A9F0A6E
:101CD000AF0ABF0A8C149D04AE04BF0430F365E55F
:101CE00071E083EE91E0DF91CF911F910F91FF9012
:101CF000EF90DF90CF90BF90AF909F908F907F90AC
:101D00006F905F904F903F902F900C944E1561E034
:101D10008DE00E94511161E08BE00E94511161E061
:101D20008AE00E94511160E08DE00E94891160E01C
:101D30008BE00E94891161E08AE00E9489118CB5D4
:101D400080618CBD8CB580648CBD0895811103C009
:101D50008CB5806202C08CB58F7D8CBD08959CB51A
:101D6000937F982B9CBD08952CB5982F93702C7F52
:101D7000922B9CBD9DB582FB882780F99E7F982B76
:101D80009DBD0895815B9F4FFC0171836083089521
:101D9000CF93DF93EC01C15BDF4F88819981DC0138
:101DA000ED91FC910190F081E02D09958881998158
:101DB000DC01ED91FC910280F381E02DDF91CF9168
:101DC0000994CF92DF92EF92FF920F931F93CF93DC
:101DD000DF93EC0182E08F876E012FE4C20ED11CED
:101DE000D6018D919C917E01BFE0EB0EF11CDC01D0
:101DF000ED91FC910480F581E02D00E020E030E0E1
:101E000041E0B7010995882321F000E010E0980136
:101E100026C0F60180819181DC01ED91FC91068064
:101E2000F781E02D28EE33E040E4B701099597FDF6
:101E3000ECCF0F8510E020E030E0322F212F102F63
:101E400000278889082B322F212F102F00278989FE
:101E5000082B322F212F102F00278A89082BB80139
:101E6000C901DF91CF911F910F91FF90EF90DF900B
:101E7000CF900895EF92FF920F93CF93DF93FC01E1
:101E800094E1978781E0808B918B828B7F018FE437
:101E9000E80EF11CD7018D919C91EF012F96DC018A
:101EA000ED91FC910480F581E02D00E020E030E030
:101EB00044E0BE010995811112C0F7018081918132
:101EC000DC01ED91FC910680F781E02D28EE33E0F6
:101ED00040E4BE01099521E0181619060CF020E037
:101EE000822FDF91CF910F91FF90EF9008954F9245
:101EF0005F926F927F928F929F92AF92BF92CF929A
:101F0000DF92EF920F931F93CF93DF93EC014A017F
:101F1000390128018AE48F8781E0888B698B5E0113
:101F20002FE4A20EB11CD5018D919C916E01BFE0F2
:101F3000CB0ED11CDC01ED91FC910480F581E02DEC
:101F400000E020E030E043E0B6010995882311F07D
:101F500080E02AC0F50180819181DC01ED91FC9146
:101F60000680F781E02D920140E4B601099597FDC6
:101F7000EFCF8F85813061F78C89F301808320E07A
:101F80000BC0822F90E0FE01E80FF91F3589F401A4
:101F9000E80FF91F30832F5F8C89281790F3EE200C
:101FA00011F088898E8781E0DF91CF911F910F9189
:101FB000EF90DF90CF90BF90AF909F908F907F90E9
:101FC0006F905F904F9008954038510561057105FD
:101FD00028F4437055276627772704C04F7055278C
:101FE0006627772781E0452B462B472B09F080E0B9
:101FF0000895DB01CA010196A11DB11D40385105AC
:102000006105710528F483709927AA27BB2704C0AE
:102010008F709927AA27BB2721E0892B8A2B8B2B2E
:1020200009F020E0822F0895AF92BF92CF92DF9205
:10203000EF92FF920F93CF93DF93EC01F42E5C01AC
:1020400028E0A20EB11C86E0F601D50101900D92A8
:102050008A95E1F750E0CE010E942B1AFF8280E4BE
:102060008F8781E0888BEE2011F081E601C080E649
:10207000898B0A8BDE01539686E0F50101900D9263
:102080008A95E1F74F819C2FEC2FFD2F02C08191A3
:10209000808F8E2F891B8417D0F36E01BFE4CB0E87
:1020A000D11CF601808191817E01FFE0EF0EF11CD1
:1020B000DC01ED91FC91465F0480F581E02D00E0AC
:1020C00020E030E0B7010995811111C0F60180814F
:1020D0009181DC01ED91FC910680F781E02D28EEE5
:1020E00033E040E4B701099581E09F85911180E0DC
:1020F000DF91CF910F91FF90EF90DF90CF90BF9045
:10210000AF900895AF92BF92CF92DF92EF92FF927D
:102110000F93CF93DF93EC015A0180E48F8781E026
:10212000888B80E3898B6A8B6E012FE4C20ED11CF1
:10213000D6018D919C917E01BFE0EB0EF11CDC017C
:10214000ED91FC910480F581E02D00E020E030E08D
:1021500044E0B7010995882311F080E01AC0F60128
:1021600080819181DC01ED91FC910680F781E02D69
:1021700028EE33E040E4B70109958F858111EDCF5A
:10218000FE01709680E1D50101900D928A95E1F7EC
:1021900081E0DF91CF910F91FF90EF90DF90CF9092
:1021A000BF90AF900895AF92BF92CF92DF92EF921F
:1021B000FF920F93CF93DF93EC016A01603410F02C
:1021C00080E03BC080E48F8781E0888B80E3898B4F
:1021D0006A8B5E012FE4A20EB11CD5018D919C91FA
:1021E0007E01BFE0EB0EF11CDC01ED91FC9104805F
:1021F000F581E02D00E020E030E044E0B7010995F2
:102200008111DECFF50180819181DC01ED91FC919E
:102210000680F781E02D28EE33E040E4B701099510
:102220008F858111CDCF88899989AA89BB89F601CB
:1022300080839183A283B38381E0DF91CF910F915B
:10224000FF90EF90DF90CF90BF90AF9008958330D4
:1022500069F028F48130A1F0823011F514C0863085
:10226000B1F08730C1F08430D9F404C0809180008F
:102270008F7703C0809180008F7D809380000895C8
:1022800084B58F7702C084B58F7D84BD0895809119
:10229000B0008F7703C08091B0008F7D8093B00035
:1022A0000895CF93DF9390E0FC01EF51FD4F4491EF
:1022B000FC01EB50FD4F8491882341F190E0880FA1
:1022C000991FFC01ED5EFC4F25913491D901875F88
:1022D0009C4FFC0185919491C82FD92F9FB7F894FA
:1022E0008C91611106C0409584238C93888184234E
:1022F00008C0623041F4242F209582238C9388817A
:10230000842B888302C0842B8C939FBFDF91CF9155
:1023100008950F931F93CF93DF931F92CDB7DEB72E
:10232000282F30E0F901E353FD4F8491F901EF517B
:10233000FD4F1491F901EB50FD4F04910023D1F0B2
:10234000882321F069830E9427116981E02FF0E042
:10235000EE0FFF1FE75FFC4F85919491DC019FB763
:10236000F8948C91611103C01095812301C0812BD9
:102370008C939FBF0F90DF91CF911F910F91089584
:102380001F920F920FB60F9211242F933F938F93AA
:102390009F93AF93BF938091DA019091DB01A0915D
:1023A000DC01B091DD013091E201232F2D5F2D374B
:1023B00020F40196A11DB11D05C0232F2A570296B6
:1023C000A11DB11D2093E2018093DA019093DB01FE
:1023D000A093DC01B093DD018091DE019091DF01DB
:1023E000A091E001B091E1010196A11DB11D809382
:1023F000DE019093DF01A093E001B093E101BF9172
:10240000AF919F918F913F912F910F900FBE0F90A1
:102410001F9018950F931F939FB7F8940091DE01BA
:102420001091DF012091E0013091E10186B5A89B78
:1024300006C08F3F21F00F5F1F4F2F4F3F4F9FBFB1
:10244000322F212F102F0027080F111D211D311DA4
:1024500042E0000F111F221F331F4A95D1F7B80128
:10246000C9011F910F910895CF92DF92EF92FF92D1
:10247000CF93DF936B017C010E940A12EB010EC027
:102480000E940A126C1B7D0B683E734038F081E09D
:10249000C81AD108E108F108C851DC4FC114D104B1
:1024A000E104F10469F7DF91CF91FF90EF90DF90A5
:1024B000CF900895789484B5826084BD84B581609E
:1024C00084BD85B5826085BD85B5816085BDEEE63C
:1024D000F0E0808181608083E1E8F0E0108280811B
:1024E00082608083808181608083E0E8F0E0808189
:1024F00081608083E1EBF0E0808184608083E0EBA9
:10250000F0E0808181608083EAE7F0E08081846090
:1025100080838081826080838081816080838081EC
:10252000806880831092C1000895FC0184859585A0
:10253000FC01E05CFF4F20813181FC01EE5BFF4F2D
:1025400080819181281B390B2F733327C90108958E
:10255000FC0184859585FC01E05CFF4F4081518141
:10256000FC01EE5BFF4F208131814217530741F0A0
:102570000190F081E02DE80FF91F208130E002C0CA
:102580002FEF3FEFC9010895FC0184859585FC017B
:10259000E05CFF4F40815181FC01EE5BFF4F2081E9
:1025A00031814217530781F0A081B181A80FB91F73
:1025B0008C91208131812F5F3F4F2F7333273183DF
:1025C0002083282F30E002C02FEF3FEFC90108958C
:1025D000FC0186859785FC01E05CFF4FDC01AE5B6A
:1025E000BF4F408151812D913C9111974217530764
:1025F000C1F70895CF93DF93FC0186859785DC01B1
:10260000A05CBF4F2D913C9111972F5F3F4F2F73CF
:102610003327EC01CE5BDF4F488159812417350702
:10262000D9F30D90BC91A02DA80FB91F6C93A6856E
:10263000B785A05CBF4F11963C932E93A689B789AE
:102640002C9181E090E0058C02C0880F991F0A94BC
:10265000E2F7282B2C9381E090E0DF91CF91089551
:1026600008951F920F920FB60F9211242F933F934C
:102670004F938F939F93EF93FF934091C600809168
:1026800086029091870201968F7399272091880284
:10269000309189028217930759F0E0918602F091F8
:1026A0008702EA5BFD4F4083909387028093860206
:1026B000FF91EF919F918F914F913F912F910F90AB
:1026C0000FBE0F901F90189583EE91E00E94951217
:1026D000892B11F00C94301308951F920F920FB6AE
:1026E0000F9211242F933F938F939F93EF93FF9318
:1026F0002091420230914302809144029091450220
:102700002817390731F48091C1008F7D8093C10073
:1027100014C0E0914402F0914502EE5FFD4F20812C
:10272000809144029091450201968F73992790936E
:102730004502809344022093C600FF91EF919F9140
:102740008F913F912F910F900FBE0F901F90189572
:10275000CF92DF92EF92FF92CF93DF93EC016A0169
:102760007B01411581EE580761057105F9F0EC898F
:10277000FD8981E090E00E8C02C0880F991F0A94B9
:10278000E2F7808360E079E08DE390E0A7019601B5
:102790000E94EF172150310941095109569547957B
:1027A00037952795211580E1380798F0EC89FD8948
:1027B000108260E874E88EE190E0A70196010E9423
:1027C000EF17215031094109510956954795379521
:1027D0002795E889F9893083EA89FB892083EE8986
:1027E000FF89408181E090E09C010A8C02C0220FA9
:1027F000331F0A94E2F7422B4083EE89FF89408120
:102800009C010B8C02C0220F331F0A94E2F7422B6B
:102810004083EE89FF8940819C010C8C02C0220F0D
:10282000331F0A94E2F7422B4083EE89FF8920810F
:102830000D8C02C0880F991F0A94E2F780958223BD
:102840008083DF91CF91FF90EF90DF90CF9008953C
:102850001092E6011092E50188EE93E0A0E0B0E06E
:102860008093E7019093E801A093E901B093EA0116
:102870008BEB91E09093E4018093E30186E492E096
:102880009093F0018093EF0182E092E09093F20147
:102890008093F10185EC90E09093F4018093F30133
:1028A00084EC90E09093F6018093F50180EC90E049
:1028B0009093F8018093F70181EC90E09093FA01F6
:1028C0008093F90186EC90E09093FC018093FB01EA
:1028D00084E08093FD0183E08093FE0187E0809394
:1028E000FF0185E08093000281E08093010208955A
:1028F000CF92DF92EF92FF920F931F93CF93DF93CC
:102900006C01EB017A01E60EF71E00E010E00BC04F
:102910006991D601ED91FC910190F081E02DC60105
:102920000995080F191FCE15DF0591F7C801DF9132
:10293000CF911F910F91FF90EF90DF90CF9008956E
:10294000DB010D900020E9F7AD0141505109461B14
:10295000570BDC01ED91FC910280F381E02D09948D
:10296000EF92FF920F931F93CF93DF937C01EB01C4
:1029700000E010E0FE0121966491662351F0F7011A
:10298000A081B181ED91FC91C7010995080F191F34
:10299000F1CFC801DF91CF911F910F91FF90EF9080
:1029A0000895AF92BF92CF92DF92EF92FF920F9372
:1029B0001F93CF93DF937C016B0100E010E0C0E038
:1029C000D0E011C0D701ED91FC91A080B180B80199
:1029D000C6010E94BD17682FC701F5010995C80FF0
:1029E000D91F0F5F1F4FD60114968D919C9115979B
:1029F0000817190738F3CE01DF91CF911F910F917E
:102A0000FF90EF90DF90CF90BF90AF9008950C941F
:102A1000A014DC01ED91FC910190F081E02D09946E
:102A20000F931F93CF93DF93EC016DE00E94091584
:102A30008C016AE0CE010E9409159C01200F311F14
:102A4000C901DF91CF911F910F9108950F931F93AB
:102A5000CF93DF93EC010E94B0148C01CE010E9451
:102A600010159C01200F311FC901DF91CF911F91DB
:102A70000F9108950F931F93CF93DF93EC010E9462
:102A8000D1148C01CE010E9410159C01200F311F22
:102A9000C901DF91CF911F910F9108950F931F935B
:102AA000CF93DF93EC010E94A0148C01CE010E9411
:102AB00010159801280F391FC901DF91CF911F917F
:102AC0000F9108954F925F926F927F929F92AF9273
:102AD000BF92CF92DF92EF92FF920F931F93CF930B
:102AE000DF93CDB7DEB7A1970FB6F894DEBF0FBE68
:102AF000CDBF5C016A017B01922E19A281E0821791
:102B000010F08AE0982E8E010F5D1F4F492C512C3A
:102B1000612C712CC701B601A30192010E94EF172D
:102B20008C2D929E80191124015011098A3014F4C1
:102B3000805D01C0895CF801808369017A01C1145C
:102B4000D104E104F10431F7B801C5010E94A014D9
:102B5000A1960FB6F894DEBF0FBECDBFDF91CF9127
:102B60001F910F91FF90EF90DF90CF90BF90AF90AB
:102B70009F907F906F905F904F9008952115310541
:102B800041F4DC01ED91FC910190F081E02D642F86
:102B900009940C9462150F931F93CF93DF93EC016C
:102BA0000E94BE158C01CE010E9410159C01200FC1
:102BB000311FC901DF91CF911F910F9108959A01A3
:102BC000AB0160E070E00C94BE150F931F93CF93A0
:102BD000DF93EC019A01AB0160E070E00E94BE154A
:102BE0008C01CE010E9410159801280F391FC901D0
:102BF000DF91CF911F910F9108959A01462F50E0D8
:102C000060E070E00C94BE150F931F93CF93DF9399
:102C1000EC019A01462F50E060E070E00E94BE1582
:102C20008C01CE010E9410159801280F391FC9018F
:102C3000DF91CF911F910F910895CF92DF92EF9284
:102C4000FF920F931F93CF93DF93EC016A017B01F7
:102C50002115310579F4E881F9810190F081E02DA9
:102C6000642FDF91CF911F910F91FF90EF90DF9034
:102C7000CF9009942A30310519F477FD0EC02AE06F
:102C8000B701A601CE01DF91CF911F910F91FF9067
:102C9000EF90DF90CF900C9462156DE20E940915C1
:102CA0008C0144275527BA014C195D096E097F092B
:102CB0002AE0CE010E946215080F191FC801DF919A
:102CC000CF911F910F91FF90EF90DF90CF900895DB
:102CD0009A01AB01662757FD6095762F0C941D165F
:102CE0000F931F93CF93DF93EC019A01AB016627FB
:102CF00057FD6095762F0E941D168C01CE010E9413
:102D000010159801280F391FC901DF91CF911F912C
:102D10000F9108950C9417180C94B218FC0180813F
:102D200091810C94B218CF93DF93EC018881998143
:102D3000009711F00E94B218198218821D821C821D
:102D40001B821A82DF91CF9108950F931F93CF9327
:102D5000DF93EC018B016F5F7F4F888199810E9427
:102D60004E19009731F0998388831B830A8381E091
:102D700001C080E0DF91CF911F910F910895CF9313
:102D8000DF93EC0188819981892B31F08A819B81C5
:102D90008617970708F00CC0CE010E94A51688235D
:102DA00049F08C819D81892B19F4E881F981108289
:102DB00081E001C080E0DF91CF910895EF92FF9212
:102DC0000F931F93CF93DF93EC017B018A01BA012C
:102DD0000E94BF16811104C0CE010E94931607C045
:102DE0001D830C83B701888199810E94341ACE011A
:102DF000DF91CF911F910F91FF90EF900895DC012B
:102E000011961C921E9213961C921E921297159662
:102E10001C921E92149716961C926115710559F01A
:102E2000DB010D900020E9F7AD0141505109461B2F
:102E3000570B0C94DE160895CF93DF93EC01FB0142
:102E40008617970761F0608171816115710529F01E
:102E5000448155810E94DE1602C00E949316CE0165
:102E6000DF91CF910895CF93DF93D82FC92F6115AC
:102E7000710561F0DB010D900020E9F7AD014150D3
:102E80005109461B570B0E94DE1602C00E94931682
:102E90008D2F9C2FDF91CF9108950F931F93CF9388
:102EA000DF93CDB7DEB761970FB6F894DEBF0FBEE4
:102EB000CDBF8C01CB01F8011182108213821282E6
:102EC00015821482168250E0BE016F5F7F4F0E9410
:102ED0003B1ABE016F5F7F4FC8010E943317619696
:102EE0000FB6F894DEBF0FBECDBFDF91CF911F911B
:102EF0000F910895EF92FF920F931F93CF93DF935B
:102F0000EC017B010C811D816115710511F480E0DC
:102F100016C04115510591F0040F151FB8010E940C
:102F2000BF168823A1F3288139818C819D81B70147
:102F3000820F931F0E94341A1D830C8381E0DF915E
:102F4000CF911F910F91FF90EF900895FB01448165
:102F50005581608171810C947A176115710559F062
:102F6000DB010D900020E9F7AD0141505109461BEE
:102F7000570B0C947A1780E00895FC012481358169
:102F80006217730748F480819181009729F0FC0152
:102F9000E60FF71F8081089580E00895CF93DF93B7
:102FA000FC01C081D181209739F409C0992787FDA0
:102FB00090950E94161A899388818111F7CFDF912D
:102FC000CF9108950E945A120E94BC01C4E6D3E139
:102FD0000E94CF012097E1F30E946413F9CFA1E290
:102FE0001A2EAA1BBB1BFD010DC0AA1FBB1FEE1F83
:102FF000FF1FA217B307E407F50720F0A21BB30BCE
:10300000E40BF50B661F771F881F991F1A9469F749
:1030100060957095809590959B01AC01BD01CF01A5
:103020000895EE0FFF1F0590F491E02D09940F9382
:103030001F93CF93DF938230910510F482E090E0EC
:10304000E0918C02F0918D0220E030E0C0E0D0E011
:1030500023C04081518148175907A8F048175907E4
:1030600061F482819381209719F09B838A832EC01B
:1030700090938D0280938C0229C02115310529F08F
:103080004217530710F0A90102C0BE01DF010281FF
:103090001381EF019A01F8013097D9F62115310516
:1030A00009F1281B390B2430310590F412968D91CB
:1030B0009C9113976115710521F0FB019383828325
:1030C00004C090938D0280938C02FD01329644C01F
:1030D000FD01E20FF31F81939193225031092D934B
:1030E0003C933AC020918A0230918B02232B41F409
:1030F000209102013091030130938B0220938A02C8
:1031000020910001309101012115310541F42DB7C5
:103110003EB74091040150910501241B350BE0910D
:103120008A02F0918B02E217F307A0F42E1B3F0BEB
:103130002817390778F0AC014E5F5F4F2417350729
:1031400048F04E0F5F1F50938B0240938A02819389
:10315000919302C0E0E0F0E0CF01DF91CF911F91A9
:103160000F910895EF92FF920F931F93CF93DF93E8
:10317000009709F48EC0DC01129713961C921E92E0
:103180001297E0908C02F0908D02E114F10489F422
:103190002D913C911197280F391F80918A029091AF
:1031A0008B028217930789F5B0938B02A0938A0252
:1031B00070C0E70120E030E001C0EA01CA17DB0778
:1031C00038F44A815B819E0141155105B1F722C057
:1031D000AC0142505109FA01D383C28300811181AD
:1031E000BC01600F711F6C177D0761F468817981E4
:1031F000600F711F6E5F7F4F718360836A817B8177
:10320000738362832115310529F4B0938D02A09355
:103210008C023FC0F901B383A283E901499159911E
:10322000C40FD51FAC17BD0771F4DC019E918E91C0
:10323000840F951F02969183808312968D919C91A5
:10324000139793838283A0E0B0E002C0D7017C0192
:10325000F701828193810097C9F7C7010296208107
:103260003181820F931F20918A0230918B0228179F
:10327000390779F4109729F410928D0210928C027C
:1032800004C013961C921E921297F0928B02E09249
:103290008A02CDB7DEB7E6E00C949D1AA0E0B0E05C
:1032A000E4E5F9E10C947B1AEC01009729F4CB01D9
:1032B0000E941718EC01B4C0DC01A60FB71FFC0177
:1032C0003297AE17BF0718F4C0E0D0E0A9C0008164
:1032D000118106171707B0F00530110508F4A0C0DA
:1032E000C80104978617970708F49AC0025011097D
:1032F000061B170B0D931D9371836083CD010E94F4
:10330000B2188EC06B01C01AD10A7C01E00EF11E0A
:10331000E0918C02F0918D0220E030E080E090E0BE
:1033200048C0EE15FF05D1F580809180540142E040
:10333000A40EB11CAC14BD0488F17401EC18FD0896
:10334000670122E0C20ED11C9E012250310945E0E6
:10335000C416D10478F04281538113965C934E9346
:1033600012971196FC92EE92F901718360833A2FC5
:103370002B2F09C00E5F1F4F080D191DD9010D938A
:103380001C9332812381009721F0FC013283238337
:1033900047C030938C0220938D0242C0808191817E
:1033A0002817390708F49C0152814381CF01E52F8A
:1033B000F42F309709F0B5CF80918A0290918B025B
:1033C0008E159F05F1F426173707D8F48091000178
:1033D00090910101009741F48DB79EB720910401AF
:1033E00030910501821B930BA817B90708F06CCF29
:1033F000B0938B02A0938A02FE013297718360839F
:103400000FC0CB010E9417187C01009709F45CCF14
:10341000A801BE010E942B1ACE010E94B218E7013A
:10342000CE01CDB7DEB7ECE00C94971A9111089558
:1034300081568A5108F4805285580895FB01DC01B9
:1034400004C08D910190801921F441505040C8F77B
:10345000881B990B0895FB01DC0102C001900D92BD
:1034600041505040D8F70895FB01DC0101900D92C6
:103470000020E1F70895FB019F01423074F04532CE
:1034800064F4642F77270E94611A805D8A330CF000
:10349000895D8193CB010097A1F71082C9010C943B
:1034A000511ADC01FC01672F71917723E1F7329704
:1034B00004C07C916D9370836291AE17BF07C8F30F
:1034C0000895AA1BBB1B51E107C0AA1FBB1FA6176B
:1034D000B70710F0A61BB70B881F991F5A95A9F7BD
:1034E00080959095BC01CD0108952F923F924F9207
:1034F0005F926F927F928F929F92AF92BF92CF9284
:10350000DF92EF92FF920F931F93CF93DF93CDB78C
:10351000DEB7CA1BDB0B0FB6F894DEBF0FBECDBF04
:1035200009942A88398848885F846E847D848C84D5
:103530009B84AA84B984C884DF80EE80FD800C81DE
:103540001B81AA81B981CE0FD11D0FB6F894DEBFC1
:103550000FBECDBFED01089513E0C2E2D3E004C079
:10356000FE010E9413182296C432D107C9F7F894BD
:02357000FFCF8B
:1035720000008E0220000000FF00FF00D3F7D3F707
:10358200D3F7FFFFFFFFFFFF0303D00000FE0000A1
:103592000000000000000000D3F7D3F7D3F77F0745
:1035A2008840FFFFFFFFFFFF4E4445462052656102
:1035B200646572000A5363616E20616E204E464359
:1035C200207461670A000000000029021602B0039D
:1035D2006402556E6B6E6F776E0030004E4643206C
:1035E200466F72756D2054797065203200556E6B8E
:1035F2006E6F776E20544C5620004552524F520047
:103602004D696661726520436C617373696300582A
:1036120000656E00732C200020627974657300309F
:1036220078002020002E0000000000FA1278149585
:0836320012C412A812E81200F4
:00000001FF
